:020000040800F2
:1000000070080020090100089B1B0008CD1900089A
:10001000991B000841070008511D0008000000005E
:100020000000000000000000000000009F1B00080E
:1000300043070008000000009D1B0008A11B0008EA
:100040002301000823010008230100082301000800
:1000500023010008230100082301000823010008F0
:1000600023010008230100082301000823010008E0
:1000700023010008230100082301000823010008D0
:1000800023010008230100082301000823010008C0
:1000900023010008230100082301000823010008B0
:1000A00023010008230100082301000823010008A0
:1000B0002301000823010008230100082301000890
:1000C0002301000823010008230100082301000880
:1000D00023010008251D0008230100082301000852
:1000E000230100082301000823010008DFF814D0D1
:1000F00000F0DEFA00F03CF80048004795260008C2
:1001000000F020FA700800200648804706480047A3
:10011000FEE7FEE7FEE7FEE7FEE7FEE7FEE7FEE7B7
:10012000FEE7FEE7051C0008ED000008202A04DBBE
:10013000203A21FA02F00021704721FA02F3D04060
:10014000C2F120029140084319467047D2B201E043
:1001500000F8012B491EFBD270470022F6E710B5CC
:1001600013460A4604461946FFF7F0FF204610BD25
:1001700070B5054C054D03E0206820448047241DE0
:10018000AC42F9D170BD00005C290008602900086C
:100190002DE9F041074615460E46102002F08CFA74
:1001A00004000AD06760C4E9026500F0C7F901687D
:1001B000216004600020BDE8F0810120FBE780EAB7
:1001C000010210B502F00043400022D04A001FD0C7
:1001D000010E01EB1261C0F35600C2F3560240F467
:1001E000000042F40002A0FB022000047F39140446
:1001F00000D0401C50EA124001D44000491EC2B257
:100200000C0604EBD010401C4008802A02D003E00A
:10021000002010BD20F00100002900DA0020184362
:1002200010BD30B480EA010202F0004530F0004217
:1002300021F0004013D090B1C30DD40DC2F31601CC
:10024000C0F31600E41A41F4000140F400027D34CA
:10025000914201D3641C00E04900002C02DA30BC5A
:10026000002070474FF400000023914201D3891A07
:10027000034340084FEA4101F7D151B1914202D105
:100280004FF0004105E002D24FF0010101E06FF0B4
:10029000010103EBC450284430BC00F074B92DE9CF
:1002A000FE4F81EA030404F0004421F00041009471
:1002B0004FF0000B23F0004350EA01045ED052EAF5
:1002C00003045BD0C3F30A54C1F30A552C44A4F2CF
:1002D000F3340194A0FB0254C1F3130141F48011E3
:1002E000C3F3130343F4801301FB024400FB034EEA
:1002F000840A970A44EA815447EA8357A4FB0768B3
:1003000002958D0A05FB07854FEA932C04FB0C54DC
:100310002705029D4FEA065847EA1637B5EB080550
:100320006EEB070C870E920E47EA811742EA8312A2
:10033000A7FB0201B6EB0B0164EB00042B0D43EAB3
:100340000C335E1844EB1C50DA465146E7FB0201C1
:10035000C5F313044FEA0B3343EA14534FEA043254
:10036000019C43EA0603A4F10C040294009CCDE92D
:1003700000B400F04EF903B0BDE8F08F0020014654
:10038000F9E72DE9F04D81EA030404F0004B21F078
:10039000004514464FF0000A23F0004150EA0502E0
:1003A00020D054EA01021DD0C5F30A570246C5F316
:1003B0001303C1F31300C1F30A5640F4801543F44C
:1003C0008013A7EB0608101BD64608F2FD3873EB26
:1003D000050002D308F1010801E092185B41B8F171
:1003E000000F03DA00200146BDE8F08D00204FF435
:1003F0008011064684460EE0171B73EB050705D3F4
:10040000121B63EB050306434CEA010C49084FEA53
:10041000300092185B4150EA0107EDD152EA030027
:1004200012D082EA040083EA0501084305D0101BBC
:10043000AB4106D20122002306E000224FF0004328
:1004400002E06FF0010253101AEB06004CEB08516A
:1004500010EB0A0041EB0B01BDE8F04D00F0CAB80B
:100460000EB540F2334102910021CDE900110A4658
:100470000B4600F0CEF803B000BD00F0004220F0C3
:100480000040C10DC0F3160040F400007F2901DADE
:1004900000207047962903DCC1F19601C84001E0B5
:1004A00096398840002AF4D040427047C1F30A527E
:1004B00010B5C1F3130140F2FF3341F480119A42A9
:1004C00001DA002010BD40F233439A42A2F23342D7
:1004D00003DC5242FFF72AFE10BD904010BD00F031
:1004E000004230F000400AD0C10D01F56071C0F348
:1004F000160042EA0151C20840071143704700202C
:100500000146704701F0004330B421F0004150EA49
:10051000010206D00A0DA2F56072C1F31301002A90
:1005200002DC30BC00207047440F44EAC104C10023
:10053000E01830BC00EBC25000F025B8004870470E
:10054000140000202DE9F0410646FFF7F7FF804632
:10055000454613E016B1E068B0420ED1206828602D
:10056000D4E90101D8F800708847204602F052F81B
:10057000D8F80000B842EBD100E025462C68002CEA
:10058000E8D1BDE8F0810029A8BF7047401C4900B0
:1005900008BF20F00100704710B4B0FA80FC00FAE8
:1005A0000CF050EA010404BF10BC704749B1CCF113
:1005B000200421FA04F411FA0CF118BF012121439F
:1005C0000843A3EB0C01CB1D4FEA00614FEA10205A
:1005D00042BF002010BC704700EBC35010440029FC
:1005E000A4BF10BC7047401C490008BF20F00100A8
:1005F00010BC704710B5141E73F1000408DA401CDB
:1006000041F1000192185B411A4301D120F0010031
:1006100010BD2DE9F04D92469B4611B1B1FA81F221
:1006200002E0B0FA80F22032904600F053F804461F
:100630000F4640EA0A0041EA0B0153465A46084376
:1006400013D0114653EA010019D0C8F140025046B8
:10065000FFF76CFD05460E4650465946424600F0EF
:1006600039F8084305D0012004E020463946BDE8AA
:10067000F08D0020054346EAE0762C4337430A9884
:100680006305E40AA0EB08000022FD0A44EA47548F
:100690000A3002D500200146E9E701051019694139
:1006A000DDE9084500196941BDE8F04DA2E7000009
:1006B000064C074D06E0E06840F0010394E80700AF
:1006C00098471034AC42F6D3FFF714FD3C290008DC
:1006D0005C290008202A04DB203A00FA02F10020FD
:1006E00070479140C2F1200320FA03F31943904070
:1006F0007047704770B5044600688168C943C907F0
:100700001CD1816821F00101816000F095FA054655
:100710000FE000BF00F090FA401B022809D9A06A40
:1007200040F01000A062E06A40F00100E0620120A9
:1007300070BD20688068C043C007EBD0002070BD4A
:10074000FEE77047F8B50024009490F82420254671
:10075000012A12D0012280F824204A681F23072A88
:100760000DD20668776B521E02EB820293409F43C4
:100770000B6893401F43776319E00220F8BD0668B9
:100780000D2A0AD2376BD21F02EB820293409F439D
:100790000B6893401F43376309E0F76A0D3A02EB99
:1007A000820293409F430B6893401F43F7620A689D
:1007B000072306680A2A0AD3F7680A3A02EB4202BC
:1007C00093409F438B6893401F43F76008E037696D
:1007D00002EB420293409F438B6893401F43376173
:1007E0000A68102A01D0112A20D1124B02689A42BD
:1007F00017D193681B0219D4936843F400039360E4
:100800000968102912D10C490C4A0968B1FBF2F1B0
:1008100001EB8101490000E0491E00910029FBD154
:1008200004E0816A41F020018162012480F82450B3
:100830002046F8BD002401401000002040420F0077
:100840002DE9F0414FF0000704003D467ED0A06A3C
:10085000002628B9E66284F82460204600F07EF87D
:100860002046FFF747FFA16AC90600D420B1A06A5D
:1008700040F01000A06269E0A16A21F4885141F0C3
:100880000201A1626268E169237B0A4347EA4301EE
:100890000A43A1684FF48077B94209D0012907D0F3
:1008A0005FF0000194F814C0BCF1010F02D00AE01F
:1008B0003946F7E7F3B1A36A43F02003A362E36A82
:1008C00043F00103E3622368D3F804C02CF4694CBD
:1008D0004CEA010CC3F804C021688B68DFF870C0D3
:1008E00003EA0C0313438B60A168B9420BD00129C2
:1008F00009D00CE0DFF85CC0A3690CEB43330B4379
:1009000043F40061DFE7218A0D05A5F58015216814
:10091000CB6A23F470032B43CB62216889680E4BAA
:100920001940914208D1E662A16A21F0020141F02A
:100930000101A162BDE8F081A06A20F0020040F050
:100940001000A062E06A40F00100E0620120F1E7DF
:10095000FDF7E1FF00E0FFFFFE0E1FFF08B5006896
:100960000649884208D10648816941F400718161D5
:10097000806900F40070009008BD00000024014070
:100980000010024010B590F821100024022903D075
:100990000421816301243DE001680A6822F00E020F
:1009A0000A6001680A6822F001020A601A4A0168B6
:1009B000914201D1012121E0174A1432914201D123
:1009C00010211BE0144A2832914201D1891515E00B
:1009D000114A3C32914201D189140FE00E4A503243
:1009E000914202D14FF4803108E00B4A64329142C7
:1009F00002D14FF4801101E04FF08071064A083AAD
:100A00005160012180F82110002180F82010416BF5
:100A100001B18847204610BD0800024070B5044669
:100A200000F00AF90546601C02D00448007804442E
:100A300000F002F9401BA042FAD370BD0400002070
:100A40002DE9F84FDFF8B891002409F1040A0AF102
:100A5000040B23460F270BF1040EC9E00125A54026
:100A60002A40AA427DD1674ED1F804C0ACEB0608FB
:100A7000B44532D014DCBCF1030F3AD009DCBCF130
:100A8000000F2AD0BCF1010F1CD0BCF1020F31D1F4
:100A90001DE0BCF1110F17D0BCF1120F2AD119E0E3
:100AA000B8F5881F19D006DCB8F5803F15D0B8F529
:100AB000801F1FD111E0B8F5001F0ED0B8F5041F3C
:100AC00018D10AE0CB6815E0CB681B1D12E0CB689B
:100AD00008330FE0CB680C330CE08B682BB1012B93
:100AE0004FF0080303D0456104E0042302E00561F0
:100AF00000E00023FF2A01D8064601E000F10406C9
:100B00004FEA840501D9A5F12005D6F8008007FA3F
:100B100005FC28EA0C0803FA05F548EA0508C6F8BA
:100B200000804D68ED0062D5374DAE6946F0010694
:100B3000AE61AD6924F0030605F001050095334D63
:100B400006EB050CDCF80850A607360F07FA06F886
:100B500025EA0805DFF8B880404503D14FF00008CA
:100B600017E044E0DFF8AC80404502D14FF00108C7
:100B70000FE0DFF8A480404502D14FF0020808E002
:100B8000DFF89880404502D14FF0030801E04FF0B4
:100B9000040808FA06F848EA0508CCF808804D6809
:100BA000D9F80060ED034D4601D5164300E09643A9
:100BB0002E604D68DAF80060AD03554601D5164346
:100BC00000E096432E604D68DBF80060ED025D4664
:100BD00001D5164300E096432E604D68DEF80060B4
:100BE000AD02754601D5164300E096432E60641CA5
:100BF0000D682A46E5407FF431AFBDE8F88F00006C
:100C000000040140000011100010024000000140EB
:100C100000080140000C0140001001400014014098
:100C2000C2680A4201D041617047016170470AB150
:100C3000016170470904FBE70148806870470000C4
:100C400004000020024881680278114481607047E6
:100C500004000020074810B5016841F01001016050
:100C6000032000F075F8002000F006F800F024F8EA
:100C7000002010BD0020024070B50D4D04464FF419
:100C80007A712878B1FBF0F00A490968B1FBF0F0FD
:100C900000F0D8FB48B9102C07D200222146501E84
:100CA00000F036F800206C6070BD012070BD0000BF
:100CB00004000020100000200C4808B5816941F0B4
:100CC00001018161816901F001010091C16941F077
:100CD0008051C161C06900F08050009004484168B3
:100CE00021F0E06141F00071416008BD0010024058
:100CF00000000140002809DB00F01F0201219140A3
:100D00004009800000F1E020C0F8001170470000A9
:100D1000F0B40E4B1B680C46C3F30223C3F1070566
:100D2000042D00D90425191D072901D2002300E054
:100D3000DB1E012606FA05F1491E214099409E401E
:100D4000761E16403143F0BC01F0B8BA0CED00E05D
:100D5000064900F0070208684FF6FF03184040EA12
:100D60000220034A10430860704700000CED00E0C9
:100D70000000FA052DE9F84305460078354CC00718
:100D800054D0E0690026C00008D4E06940F08050EB
:100D9000E061E069012600F0805000902E48016873
:100DA000C90512D40168804641F480710160FFF7E3
:100DB00043FF074605E000BFFFF73EFFC01B642866
:100DC00023D8D8F80000C005F6D5206A10F440708A
:100DD00021D0A98801F4407181421CD0206A1F49AA
:100DE000012220F440700A6000220A602062C007DD
:100DF00011D0FFF721FF074641F2883808E000BF15
:100E0000FFF71AFFC11B414502D90320BDE8F88353
:100E1000206A8007F4D5206A696820F4407008438E
:100E200020621EB1E06920F08050E06128788007E0
:100E300005D56068A96820F44040084360602878C0
:100E4000C00605D56068E96820F48000084360604A
:100E50000020DBE7001002400070004040044242E6
:100E60002DE9F0470F46050061D0434E306800F091
:100E70000700B84209D2306820F0070038433060DC
:100E8000306800F00700B84251D128683B4C810718
:100E900012D5400703D5606840F4E06060602878B0
:100EA000000703D5606840F4605060606068A9681E
:100EB00020F0F000084360602878C00728D06868F8
:100EC000012810D02168022810D0890700292EDAC5
:100ED000616821F0030101436160FFF7ADFE8046C8
:100EE00041F288390DE021688903EFE78901EDE7D8
:100EF000FFF7A2FEA0EB0801494502D90320BDE897
:100F0000F0876068696800F00C00B0EB810FEFD1EA
:100F1000306800F00700B8420BD9306820F00700B5
:100F200038433060306800F00700B84201D001203B
:100F3000E5E72878400705D56068E96820F4E060B7
:100F4000084360602878000706D56068296920F4A6
:100F5000605040EAC100606000F038F86168084AFB
:100F6000C1F30311515CC840064908600648006897
:100F7000FFF782FE0020C2E700200240001002407E
:100F8000242700081000002008000020044805491C
:100F900000684968044AC1F30221515CC8407047A7
:100FA00010000020001002403427000804480549C2
:100FB00000684968044AC1F3C221515CC8407047C7
:100FC00010000020001002403427000812A185B054
:100FD0000FC98DE80F0014A0144A006804905168EE
:100FE000134811F00C0312D0042B10D0082B0ED193
:100FF000C1F38343C9031DF803000AD5516804AA4D
:10100000C1F34041515C0A4A5043B0FBF1F005B0D6
:10101000704708494843FAE7020304050607080930
:101020000A0B0C0D0E0F1010010200000010024000
:1010300000127A0000093D002DE9F84F040070D03D
:101040002078C04DC00749D06868C0F381000128EE
:1010500007D06868C0F38100022809D16868C0031E
:1010600006D52868800339D560680028E7D035E0C8
:101070006068B0F5803F0BD010B1B0F5A02F11D053
:10108000286820F480302860286820F4802002E05E
:10109000286840F480302860606890B1FFF7CCFD8C
:1010A00006460AE0286840F480202860F0E700BF88
:1010B000FFF7C2FD801B642873D828688003F7D52A
:1010C0000CE0FFF7B9FD064605E000BFFFF7B4FDF1
:1010D000801B6428F0D828688003F7D420789A4EC3
:1010E00080074FF001094FF0000839D5686810F00B
:1010F0000C0F07D06868C0F38100022809D1686826
:10110000C00306D42868800714D52069012808D1B7
:1011100010E02069B0B1C6F80090FFF78DFD0746DA
:1011200005E00AE1FFF788FDC01B0228C4D8286843
:101130008007F7D52868616920F0F80040EAC1000F
:1011400028600DE0C6F80080FFF776FD074604E052
:10115000FFF772FDC01B022823D828688007F7D448
:10116000207800072CD57948A169D9B1C0F8009042
:10117000FFF762FD074604E0FFF75EFDC01B022893
:101180000FD8686A8007F7D571484FF4FA510068A4
:10119000B0FBF1F0009000BF0098411E0091FAD220
:1011A0000EE080E0C0F80080FFF746FD074604E04F
:1011B000FFF742FDC01B022875D8686A8007F7D484
:1011C0002078400760D5E8690027C00008D4E869A6
:1011D00040F08050E861E869012700F080500090FD
:1011E0005C480168C90513D40168834641F48071E5
:1011F0000160FFF721FD824606E000BFFFF71CFDFE
:10120000A0EB0A0064284ED8DBF80000C005F5D535
:10121000E06801280AD008B1052813D0286A20F018
:1012200001002862286A20F0040002E0286A40F0E9
:1012300001002862E06841F2883B98B1FFF7FCFCAE
:1012400082460BE0286A40F004002862EEE700BF07
:10125000FFF7F2FCA0EB0A0159455AD8286A80072B
:10126000F6D50CE0FFF7E8FC824605E0FFF7E4FC6A
:10127000A0EB0A0159454CD8286A8007F6D41FB163
:10128000E86920F08050E861E06988B36968C1F3DB
:101290008101022944D00228C6F8608004D0FFF7FB
:1012A000CBFC044638E034E0FFF7C6FC074604E018
:1012B000FFF7C2FCC01B02282BD828688001F7D496
:1012C000206AB0F5803F05D16868A16820F400303D
:1012D00008436860D4E908010843696821F474117F
:1012E00008436860C6F86090FFF7A6FC044606E075
:1012F00025E000BFFFF7A0FC001B022809D82868E2
:101300008001F7D51BE000BFFFF796FC001B022809
:1013100002D90320BDE8F88F28688001F4D40EE0DC
:101320000128F7D06868226A00F48031914204D124
:10133000616A00F47010884201D00120EAE70020C1
:10134000E8E70000001002400000424280044242F0
:10135000100000200070004070B5040005D000258A
:10136000A56294F8510010B106E0012070BD84F828
:101370005050204600F02EF8022084F851002068DA
:10138000016821F040010160D4E901010843D4E97A
:1013900003121143084361690843218B01F4007172
:1013A0000843E1690843216A0843A16A08432168A8
:1013B0000860A069042101EA1040216848602068A3
:1013C000C16921F40061C1616565012084F85100A3
:1013D000002070BD30B585B00024009401940294C3
:1013E000039400681449884223D11448816941F468
:1013F00080518161816901F480510491816941F0DA
:101400000401816180690E4D00F004000490B02059
:101410000090022001900320039069462846FFF7C0
:101420000FFB4020CDE90004694628460294FFF7EF
:1014300007FB05B030BD0000003001400010024045
:101440000008014010B5401EB0F1807F01D301209B
:1014500010BD4FF0E02460610F21601700F02EFFF7
:101460000020A06107202061002010BD70B590F819
:101470003C20012A19D0012400F83C4F022242707E
:1014800050F83C3C5A689D6822F070060A6849682A
:10149000324325F0800529435A6050F83C2C916076
:1014A000447000210170084670BD022070BD10B567
:1014B000040003D094F83D0010B107E0012010BDF6
:1014C000002084F83C00204600F00CF8022084F84C
:1014D0003D00211D206800F0B9FB012084F83D008B
:1014E000002010BD08B50068B0F1804F08D1054854
:1014F000C16941F00101C161C06900F001000090C3
:1015000008BD00000010024070B5044690F83C0091
:10151000012817D0012584F83C50022084F83D00B2
:101520002068826822F0770222F47F428260086895
:10153000502830D00DDC20284DD005DC98B3102881
:101540003BD148E0022070BD302844D0402834D13F
:1015500039E0602828D0702806D0B0F5805F2CD004
:10156000B0F5005F29D10AE0CB68D1E901212068FC
:1015700000F0A2FB2068816841F0770109E0CB68A8
:10158000D1E90121206800F097FB2068816841F4CF
:101590008041816011E0CA684968206800F07CFDE4
:1015A0005021206807E016E0CA684968206800F00A
:1015B00084FD6021206800F067FD84F83D50002024
:1015C00084F83C0070BDCA684968206800F064FD7A
:1015D00040212068EFE7226801461046EBE7000053
:1015E00000B585B00021009101910291039100683E
:1015F000B0F1804F11D10A48816941F00401816145
:101600008069694600F004000490042000900220E4
:10161000019003900348FFF713FA05B000BD0000E6
:10162000001002400008014070B5044690F83C00EC
:101630000D4601280DD0012684F83C60022084F874
:101640003D0042B1042A18D0082A2AD00C2A4DD1D4
:1016500039E0022070BD206800F0A0FC206881699C
:1016600041F0080181612068816921F004018161F4
:10167000206881692A69114311E0206800F026FB87
:101680002068816941F4006181612068816921F4E9
:1016900080618161206881692A6941EA0221816152
:1016A00024E0206800F0A2FC2068C16941F0080134
:1016B000C1612068C16921F00401C1612068C1696C
:1016C0002A69114311E0206800F0BCFC2068C16960
:1016D00041F40061C1612068C16921F48061C16188
:1016E0002068C1692A6941EA0221C16184F83D602C
:1016F000002084F83C0070BD10B5040003D094F8BD
:101700003D0010B107E0012010BD002084F83C002E
:10171000204600F00CF8022084F83D00211D2068CE
:1017200000F094FA012084F83D00002010BD7047BD
:101730007047000070B5026804461068D1685369AC
:1017400010F00F0F50D003F0010501F490763543EF
:101750005DD0C20705D0CA0503D5E26B42F0010295
:10176000E263420705D5DA0703D0E26B42F00202DA
:10177000E263820705D5DA0703D0E26B42F0040288
:10178000E263020705D5DA0703D0E26B42F00802F4
:10179000E263E26B002A33D0800604D5880602D5C6
:1017A000204600F0F9FC20684069E16BC0F380102E
:1017B000090700D428B3204600F06AFD206841697B
:1017C00049061AD5416921F040014161606BA0B121
:1017D0001B494163606BFFF7D5F8002810D0606BA0
:1017E000416BBDE870400847830610D58B060ED5C7
:1017F0002046BDE8704000F0CFBC2046FFF798FFC0
:1018000070BD2046FFF794FF0020E06370BD030623
:1018100006D50B0604D52046BDE8704000F007BD94
:101820004006F3D54806F1D5D168204621F04001A5
:10183000D160202184F8391000F0C7F870BD000095
:10184000AD22000870B5040004D094F839000025DA
:1018500010B106E0012070BD84F83850204600F039
:1018600023F8242084F839002068C16821F400514D
:10187000C160204600F034FC2068016921F49041E9
:1018800001612068416921F02A0141612068C16835
:1018900041F40051C160E563202084F8390084F8E8
:1018A0003A00002070BD000030B585B000240094DF
:1018B00001940294039400681B49884232D11B486A
:1018C000816941F480418161816901F48041049121
:1018D000816941F0080181618069154D00F00800BF
:1018E000049040200090022001900320039069465C
:1018F0002846FFF7A5F88020CDE900046946284670
:101900000294FFF79DF80B48416841F0E06141F017
:1019100004014160002211462520FFF7F9F9252036
:10192000FFF7E8F905B030BD003801400010024073
:10193000000C01400000014090F83A30202B22D1E9
:10194000F9B1F2B190F83830012B1CD08162828558
:10195000C2850021C163222280F83A2080F8381025
:101960000168CA6842F48072CA6001684A6942F03C
:1019700001024A610068C16841F02001C160002095
:1019800070470120704702207047704790F8393047
:10199000202B18D1A9B1A2B190F83830012B12D068
:1019A00001628284C2840021C163212280F839202F
:1019B00080F838100068C16841F08001C1600020E3
:1019C000704701207047022070477047FEE7000013
:1019D00030B58FB000240E4800900C9402944FF460
:1019E00060200D940E94012507908DF80C408DF821
:1019F0001440049501946846FEF722FF1020CDE9BB
:101A00000C050CA90E946846FEF79CFE0FB030BD85
:101A1000002401402DE9F04385B0002525480095BC
:101A2000019502950395816941F0200181618169E9
:101A300001F020010491816941F004018161816913
:101A400001F004010491816941F00801816180691C
:101A5000DFF8649000F00800049000224FF4427117
:101A60004846FFF7E4F8DFF854804FF220070022E1
:101A700039464046FFF7DBF84FF484700124032613
:101A80008DE8710069464846FEF7DAFF01AA009723
:101A900082E8700069464046FEF7D2FF6002CDE959
:101AA0000004CDE9024669464846FEF7C9FF05B085
:101AB000BDE8F0830010024000080140000C014026
:101AC00000B597B00C4800904FF482700190002050
:101AD0004FF40061CDE9020189100490CDE90501C0
:101AE0002821CDE9071009900A900A200B9068463A
:101AF000FFF732FC17B000BD0030014010B59EB0BA
:101B000000241794189419941A941B941C2110A85B
:101B10001C94FEF722FB4FF0804000904820CDE956
:101B200001046320CDE9030468460694FFF7BFFC77
:101B30004FF48050179017A96846FFF7E5FC6846F8
:101B4000FFF7DAFD1B941BA968461C94FFF78EFC77
:101B50006020CDE910041294082210A9684614945C
:101B6000FFF762FD6846FFF73BFD1EB010BD0000A9
:101B70000848074901604FF46141416000218160DC
:101B80000C22C160C0E904128161C161FFF75ABE35
:101B90000038014020000020FEE7FEE77047704754
:101BA000FFF750B830B593B028216846FEF7D5FA54
:101BB00014210AA8FEF7D1FA002401200F941094F2
:101BC0001194010412948DE8130004904FF4E01076
:101BD000CDE90810022507956846FFF72DFA0F207A
:101BE000CDE90A056802CDE90C4002210AA80E944D
:101BF000FFF736F9A80311900F950FA8FFF7BAF871
:101C000013B030BD0D48016841F001010160416829
:101C10000B4A1140416001680A4A114001600168A5
:101C200021F480210160416821F4FE0141604FF4FC
:101C30001F0181600449C003086070470010024022
:101C40000000FFF8FFFFF6FE08ED00E0F0B50268C7
:101C5000164B174C174D4FF08047984205D0B842AD
:101C600003D0A04201D0A84203D122F070064A68F6
:101C70003243984205D0B84203D0A04201D0A842D6
:101C800003D122F44074CA6822434C6922F08002D6
:101C9000224302608A68C2620A688262984201D165
:101CA0000969016301214161F0BD0000002C014080
:101CB000000400400008004010B5846842EA032296
:101CC00024F47F440A432243826010BD30B5026A87
:101CD00022F010020262026A436884690D6824F4EB
:101CE000E64444EA05248D6822F0200242EA051207
:101CF0000B4DA8420ED1CD6822F0800242EA0512B7
:101D00004D6923F4406343EA85038D6922F0400264
:101D100043EA85034360846149688163026230BDA0
:101D2000002C014010B50748FFF704FD01220649C9
:101D30000448FFF701FE04480178BDE8104003485D
:101D400000F0FEBA2000002000000020600000200B
:101D5000FEE7000007480168C9010AD4016841F0A4
:101D600080710160044800214160016841F0010177
:101D700001607047FCED00E0001000E00B4910B579
:101D80004A680B4B0B4C1B68B3FBF4F34C6800FB2D
:101D90000340904203D94A688242FCD310BD4B688D
:101DA0009342FCD84B688342F9D310BD001000E089
:101DB0001000002040420F002DE9F041064648E0A7
:101DC0006420FEF72BFE274800F0E5FA0A2840D3EE
:101DD0000421244800F082FA234A50400843214855
:101DE00002D000F094FA34E000F091FA1D4800F0BF
:101DF0008EFA1C4800F08BFA1A4800F088FA19484D
:101E000000F085FA8046174800F081FA044615482C
:101E100000F07DFA04EB0020C01EC5B2114800F0AE
:101E200076FA0746002404E000F071FA3119641CC8
:101E300048740C48AC42F7DB00F069FA094800F03E
:101E400066FA317A414504D12A463946304600F0D7
:101E500027F8044800F095FA0028B1D00120BDE829
:101E6000F08100006000002000FDFFFF70B501223E
:101E7000094E0446150329463046FEF7D8FE1822BF
:101E800004F125010548FFF781FD0022294630466F
:101E9000FEF7CDFE012070BD000C014020000020A7
:101EA00070B504462CA0227A0068C4F8250084F896
:101EB0002920082925DA4FF00005042921D2DFE87E
:101EC00001F020022021072084F82A0084F82B50FA
:101ED000552084F82C0084F82D50062084F82E001C
:101EE000042084F82F00262084F830000C2304F10D
:101EF00031020021204600F035F80E212046FFF780
:101F0000B5FF70BD164E08213046FEF789FE607C95
:101F1000A17C00EB012080B2742809D000F6EF60AC
:101F2000B0F50050EDD1217A206C00F0D3FA70BDED
:101F300008213046FEF774FE002065642118C200B7
:101F4000C97C9140626C401C114461640428F5DB3B
:101F5000206C00F035FA70BDFFFFFD0000000000AE
:101F60000008014030B508460024084D0BE000BFD2
:101F700012F8011B641C81EA1021A4B235F811107B
:101F800081EA002080B29C42F2D330BD3C27000899
:101F900003640172C26070477047000030B5026A86
:101FA00022F001020262026A4368846924F0730528
:101FB0000C682C4322F002058A682A430A4DA84285
:101FC0000BD122F00805CA6823F440732A434D69F7
:101FD00022F004021D438B692B43436084614968EE
:101FE0004163026230BD0000002C014030B5026A3E
:101FF00022F480720262036A4268C46923F40073A7
:1020000024F073050C682C438D6843EA05230C4DBE
:10201000A8420ED1CD6823F4006343EA05234D693D
:1020200022F4405242EA05128D6923F4806342EAA9
:1020300005124260C4614968C163036230BD00009B
:10204000002C014030B5026A22F480520262046A18
:102050004268C3690D6823F4E64343EA05238D68AB
:1020600024F4005444EA0534064DA84204D14D69D5
:1020700022F4804242EA85124260C36149680164E9
:10208000046230BD002C0140826822F070020A43D5
:1020900042F007018160704710B5036A046A24F0BA
:1020A00001040462846924F0F00444EA021423F079
:1020B0000A020A438461026210BD10B5036A23F06C
:1020C000100303628369046A23F4704343EA023213
:1020D00024F0A00343EA01118261016210BD0000F7
:1020E0002DE9F041044600680169E26821F440519D
:1020F000114301612169A0680843616908432168AF
:10210000CA6841F20C639A430243CA60206841697D
:10211000A26921F44071114341611E492068642580
:102120003226884202D1FEF741FF01E0FEF72EFF82
:1021300000EBC00101EB001160686FF01807800030
:10214000B1FBF0F2B2FBF5F2B1FBF0F37A4303EB33
:102150008202B1FBF0F306EB0212B2FBF5F2B3FB25
:10216000F5F302F0F00202EB0312B1FBF0F3B1FB66
:10217000F0F0B0FBF5F0784303EB800006EB0010C5
:10218000B0FBF5F0216800F00F0010448860BDE856
:10219000F08100000038014010B590F83A10222973
:1021A00001D0022010BD8168B1F5805F11D00169B6
:1021B000002901681FD0496801F07F03816A4A1C29
:1021C00082620B70C18D491E0904090CC18518D0AB
:1021D0002BE00269816A002A0268526805D0D2B2F7
:1021E0000A80816A491C8162ECE7C2F308020A8016
:1021F000816A891CF7E74A68816A4B1C83620A700E
:10220000E0E70168CA6822F02002CA600168CA6873
:1022100022F48072CA6001684A6922F001024A61B0
:10222000202180F83A10FFF7B0FB002010BD90F895
:102230003910212901D0022070478168B1F5805FF3
:10224000016A0BD04A1C0262026809785160C18C95
:10225000491E0904090CC1840ED017E009880268E0
:10226000C1F30801516001690029016A02D0491CCB
:102270000162ECE7891CFBE70168CA6822F0800272
:10228000CA600068C16841F04001C1600020704729
:102290000168CA6822F49072CA6001684A6922F033
:1022A00001024A61202180F83A10704710B5406A57
:1022B0000021C185C184FFF73BFA10BD0907090E53
:1022C000002804DB00F1E02080F80014704700F0E3
:1022D0000F0000F1E02080F8141D7047F0B50E46A5
:1022E0000746042901D900200FE00024254609E013
:1022F0002946384600F05AF8711BC9000839884051
:1023000004436D1CB542F3DB20460021F0BD41685B
:102310004A1C09D000F10C0203688A5C994205D17D
:102320004FF0FF31016008E00020704783685B1EBA
:10233000994201D1002100E0491C416010467047DC
:1023400070B5D0E901340268641E0BB9A24217D0FF
:102350005D1E95FBF4F604FB1655954210D05E1CED
:102360004FF0000504D0A24205D123B1056004E07E
:102370000560456001E0521C026050F80C2B1154BE
:1023800070BDD0E90010814201D1491C01D000206C
:10239000704701207047D0E900218A4201DD501AC0
:1023A00002E080680844801AC0B270474268114455
:1023B000826891FBF2F302FB13110844007B704723
:1023C0002DE9F0470546008A884202D20020BDE888
:1023D000F087284600F070F80146284600F050F8D3
:1023E0006968441A002C01DAC4F1000402DA4FF0E3
:1023F000000101E04FF00101284600F02BF8012216
:10240000DFF84C8017024FF4C87A39464046FEF791
:102410000EFCB9460026474610E0012249463846E0
:10242000FEF705FC5046FFF7A9FC00224946384656
:10243000FEF7FDFB5046FFF7A1FC761CA642ECDB45
:10244000A969686804FB010068600120BFE700001B
:102450000008014010B5044608484FF4805329B1E4
:1024600001221946FEF7E3FB012005E00022194690
:10247000FEF7DDFB4FF0FF30A06110BD000C014006
:1024800010B50A46044601681046FDF7CAFEE16829
:10249000FDF795FEBDE81040FDF7EFBF10B508460B
:1024A000FEF71DF80022034BFDF76BFFFDF7FEFF63
:1024B00080B210BD0080B63F10B50846FDF7D0FFD2
:1024C0000022034BFDF7EBFEBDE81040FEF71AB803
:1024D0000080B63F41F6B452012906D0022903D14B
:1024E000034900BFC0E9012170470249FAE7000033
:1024F0000000104200002F4370B50C4D044601222D
:1025000051032846FEF793FB00224FF480412846F2
:10251000FEF78DFB00224FF400412846FEF787FBB3
:10252000102060610248206070BD0000000C014076
:102530006666E63D10B50446012905D01348022918
:102540000ED0032917D01FE01148E0601149204642
:10255000FFF7A4FF20821048A06041F6B45012E0BB
:10256000E0600E492046FFF799FF20820C48A060EA
:102570004FF4096007E0E0600A492046FFF78EFF4C
:1025800020820020A0606060204610BD3333DB4015
:102590000D719C400000AF4300002F430000FC423F
:1025A0000000104200002A4302E008C8121F08C1C0
:1025B000002AFAD170477047002001E001C1121FC4
:1025C000002AFBD17047000010B50F48C8214FF01A
:1025D000FF34C0E9014104600121D430FFF7AAFFB4
:1025E0000948C821F030A0F11C03C0E90141046092
:1025F0004FF461420121D430FFF7CAFCBDE810401E
:10260000024A0349FDF7C4BD600000200000000835
:10261000991F000810B5002821D0114B0022001F7F
:10262000196803E0814203D80A4649680029F9D1B4
:1026300052B11368841A9C4204D100681844106097
:10264000104602E0506000E0186039B102680B1AD1
:10265000934203D10B681A4402604968416010BD7F
:102660001800002010B5FEF7F5FAFFF79BFAFFF708
:10267000D1F9FFF725FAFFF741FAFFF779FAFFF7EB
:10268000A7F903480068C16841F02001C16010BD8E
:1026900020000020FFF7E6FFFFF75CFB6420FEF759
:1026A000BDF90448FFF728FF0248F030FFF784FB2C
:1026B000FAE7000034010020F0B50B30154D20F092
:1026C00007010024144A0FE003688B420BD38B42AE
:1026D00005D95E1A43184768C3E9006700E04368FC
:1026E000136002C004E0021D10680028ECD12046EF
:1026F000002802D1286808B10020F0BD064A07482A
:102700001060074A121A22F00702C0E900240120D3
:102710002860D7E71C000020180000207402002069
:10272000700400200000000000000000010203040B
:1027300006070809000000000102030400000580EC
:102740000F800A001B801E001400118033803600A9
:102750003C00398028002D8027802200638066009D
:102760006C00698078007D80778072005000558011
:102770005F805A004B804E0044004180C380C600F9
:10278000CC00C980D800DD80D780D200F000F58071
:10279000FF80FA00EB80EE00E400E180A000A5805D
:1027A000AF80AA00BB80BE00B400B18093809600C9
:1027B0009C00998088008D808780820083818601BB
:1027C0008C01898198019D8197819201B001B58129
:1027D000BF81BA01AB81AE01A401A181E001E58115
:1027E000EF81EA01FB81FE01F401F181D381D60181
:1027F000DC01D981C801CD81C781C2014001458179
:102800004F814A015B815E015401518173817601E0
:102810007C01798168016D816781620123812601D4
:102820002C01298138013D81378132011001158148
:102830001F811A010B810E0104010181038306032C
:102840000C03098318031D83178312033003358398
:102850003F833A032B832E03240321836003658384
:102860006F836A037B837E037403718353835603F0
:102870005C03598348034D8347834203C003C583E8
:10288000CF83CA03DB83DE03D403D183F383F60350
:10289000FC03F983E803ED83E783E203A383A60344
:1028A000AC03A983B803BD83B783B20390039583B8
:1028B0009F839A038B838E038403818380028582A6
:1028C0008F828A029B829E0294029182B382B60218
:1028D000BC02B982A802AD82A782A202E382E6020C
:1028E000EC02E982F802FD82F782F202D002D58280
:1028F000DF82DA02CB82CE02C402C1824382460268
:102900004C02498258025D825782520270027582DF
:102910007F827A026B826E026402618220022582CB
:102920002F822A023B823E02340231821382160237
:102930001C02198208020D82078202026029000827
:102940000000002020000000A825000880290008C1
:102950002000002050080000B82500086DFCFFFF93
:102960000000000001000000100000000000000056
:102970000024F4000000000000000000000000003F
:04000005080000ED02
:00000001FF
