:020000040800F2
:1000000050040020010100082F16000861140008A8
:100010002D160008B9010008C517000800000000EF
:10002000000000000000000000000000331600087F
:10003000BB0100080000000031160008351600085A
:100040001B0100081B0100081B0100081B01000820
:100050001B0100081B0100081B0100081B01000810
:100060001B0100081B0100081B0100081B01000800
:100070001B0100081B0100081B0100081B010008F0
:100080001B0100081B0100081B0100081B010008E0
:100090001B0100081B0100081B0100081B010008D0
:1000A0001B0100081B0100081B0100081B010008C0
:1000B0001B0100081B0100081B0100081B010008B0
:1000C0001B0100081B0100081B0100081B010008A0
:1000D0001B010008B91700081B0100081B010008DC
:1000E0001B0100081B0100081B010008DFF80CD0F1
:1000F00000F02AF800480047AD1B0008500400201B
:100100000648804706480047FEE7FEE7FEE7FEE7B1
:10011000FEE7FEE7FEE7FEE7FEE7FEE799160008CA
:10012000ED000008D2B201E000F8012B491EFBD21D
:1001300070470022F6E710B513460A4604461946F2
:10014000FFF7F0FF204610BD064C074D06E0E068C3
:1001500040F0010394E8070098471034AC42F6D30E
:10016000FFF7C8FFF01B0008101C000870B504461C
:1001700000688168C943C9071CD1816821F0010169
:10018000816000F08FFA05460FE000BF00F08AFAA8
:10019000401B022809D9A06A40F01000A062E06A62
:1001A00040F00100E062012070BD20688068C0431B
:1001B000C007EBD0002070BDFEE77047F8B5002403
:1001C000009490F824202546012A12D0012280F8BC
:1001D00024204A681F23072A0DD20668776B521E17
:1001E00002EB820293409F430B6893401F43776367
:1001F00019E00220F8BD06680D2A0AD2376BD21F1B
:1002000002EB820293409F430B6893401F43376386
:1002100009E0F76A0D3A02EB820293409F430B68B4
:1002200093401F43F7620A68072306680A2A0AD325
:10023000F7680A3A02EB420293409F438B6893406F
:100240001F43F76008E0376902EB420293409F4387
:100250008B6893401F4337610A68102A01D0112A26
:1002600020D1124B02689A4217D193681B0219D40D
:10027000936843F4000393600968102912D10C4974
:100280000C4A0968B1FBF2F101EB8101490000E081
:10029000491E00910029FBD104E0816A41F0200150
:1002A0008162012480F824502046F8BD00240140DA
:1002B0000C00002040420F002DE9F0414FF00007F4
:1002C00004003D467ED0A06A002628B9E66284F884
:1002D0002460204600F07EF82046FFF747FFA16A21
:1002E000C90600D420B1A06A40F01000A06269E005
:1002F000A16A21F4885141F00201A1626268E169BA
:10030000237B0A4347EA43010A43A1684FF48077FD
:10031000B94209D0012907D05FF0000194F814C058
:10032000BCF1010F02D00AE03946F7E7F3B1A36A46
:1003300043F02003A362E36A43F00103E36223680E
:10034000D3F804C02CF4694C4CEA010CC3F804C087
:1003500021688B68DFF870C003EA0C0313438B60DD
:10036000A168B9420BD0012909D00CE0DFF85CC0CC
:10037000A3690CEB43330B4343F40061DFE7218AAD
:100380000D05A5F580152168CB6A23F470032B4376
:10039000CB62216889680E4B1940914208D1E66210
:1003A000A16A21F0020141F00101A162BDE8F081E2
:1003B000A06A20F0020040F01000A062E06A40F065
:1003C0000100E0620120F1E7FDF7E1FF00E0FFFF3F
:1003D000FE0E1FFF08B500680649884208D106488E
:1003E000816941F400718161806900F400700090BE
:1003F00008BD0000002401400010024010B590F834
:1004000021100024022903D00421816301243DE04E
:1004100001680A6822F00E020A6001680A6822F088
:1004200001020A601A4A0168914201D1012121E0CA
:10043000174A1432914201D110211BE0144A28328C
:10044000914201D1891515E0114A3C32914201D106
:1004500089140FE00E4A5032914202D14FF480319C
:1004600008E00B4A6432914202D14FF4801101E05E
:100470004FF08071064A083A5160012180F821103E
:10048000002180F82010416B01B18847204610BD43
:100490000800024070B5044600F004F90546601CEF
:1004A00002D004480078044400F0FCF8401BA0424D
:1004B000FAD370BD000000202DE9F84FDFF8B891A5
:1004C000002409F1040A0AF1040B23460F270BF15B
:1004D000040EC9E00125A5402A40AA427DD1674EFD
:1004E000D1F804C0ACEB0608B44532D014DCBCF142
:1004F000030F3AD009DCBCF1000F2AD0BCF1010F88
:100500001CD0BCF1020F31D11DE0BCF1110F17D08E
:10051000BCF1120F2AD119E0B8F5881F19D006DCFA
:10052000B8F5803F15D0B8F5801F1FD111E0B8F5A0
:10053000001F0ED0B8F5041F18D10AE0CB6815E0F3
:10054000CB681B1D12E0CB6808330FE0CB680C337F
:100550000CE08B682BB1012B4FF0080303D04561F1
:1005600004E0042302E0056100E00023FF2A01D833
:10057000064601E000F104064FEA840501D9A5F121
:100580002005D6F8008007FA05FC28EA0C0803FAD3
:1005900005F548EA0508C6F800804D68ED0062D50B
:1005A000374DAE6946F00106AE61AD6924F0030631
:1005B00005F001050095334D06EB050CDCF80850FD
:1005C000A607360F07FA06F825EA0805DFF8B8800F
:1005D000404503D14FF0000817E044E0DFF8AC805D
:1005E000404502D14FF001080FE0DFF8A4804045FC
:1005F00002D14FF0020808E0DFF89880404502D1B0
:100600004FF0030801E04FF0040808FA06F848EA42
:100610000508CCF808804D68D9F80060ED034D4618
:1006200001D5164300E096432E604D68DAF800606D
:10063000AD03554601D5164300E096432E604D6844
:10064000DBF80060ED025D4601D5164300E09643FD
:100650002E604D68DEF80060AD02754601D5164388
:1006600000E096432E60641C0D682A46E5407FF446
:1006700031AFBDE8F88F0000000401400000111008
:10068000001002400000014000080140000C014041
:1006900000100140001401400AB1016170470904D3
:1006A000FBE7000001488068704700000000002060
:1006B0000248816802781144816070470000002080
:1006C000074810B5016841F010010160032000F0F7
:1006D00075F8002000F006F800F024F8002010BDA6
:1006E0000020024070B50D4D04464FF47A71287811
:1006F000B1FBF0F00A490968B1FBF0F000F0D8FB5B
:1007000048B9102C07D200222146501E00F036F8BE
:1007100000206C6070BD012070BD00000000002052
:100720000C0000200C4808B5816941F0010181618D
:10073000816901F001010091C16941F08051C161FD
:10074000C06900F0805000900448416821F0E061E9
:1007500041F00071416008BD0010024000000140FE
:10076000002809DB00F01F020121914040098000B0
:1007700000F1E020C0F8001170470000F0B40E4B0B
:100780001B680C46C3F30223C3F10705042D00D9EF
:100790000425191D072901D2002300E0DB1E0126D4
:1007A00006FA05F1491E214099409E40761E1640EA
:1007B0003143F0BC01F0CAB90CED00E0064900F08D
:1007C000070208684FF6FF03184040EA0220034A78
:1007D00010430860704700000CED00E00000FA05CF
:1007E0002DE9F84305460078354CC00754D0E06940
:1007F0000026C00008D4E06940F08050E061E06964
:10080000012600F0805000902E480168C90512D4DE
:100810000168804641F480710160FFF743FF07469D
:1008200005E000BFFFF73EFFC01B642823D8D8F8BF
:100830000000C005F6D5206A10F4407021D0A988C8
:1008400001F4407181421CD0206A1F49012220F42A
:1008500040700A6000220A602062C00711D0FFF7D2
:1008600021FF074641F2883808E000BFFFF71AFF72
:10087000C11B414502D90320BDE8F883206A8007E7
:10088000F4D5206A696820F44070084320621EB1E4
:10089000E06920F08050E0612878800705D5606825
:1008A000A96820F44040084360602878C00605D558
:1008B0006068E96820F48000084360600020DBE79E
:1008C0000010024000700040400442422DE9F04711
:1008D0000F46050061D0434E306800F00700B84273
:1008E00009D2306820F0070038433060306800F0EB
:1008F0000700B84251D128683B4C810712D5400708
:1009000003D5606840F4E06060602878000703D594
:10091000606840F4605060606068A96820F0F00092
:10092000084360602878C00728D06868012810D084
:100930002168022810D0890700292EDA616821F089
:10094000030101436160FFF7ADFE804641F2883943
:100950000DE021688903EFE78901EDE7FFF7A2FECB
:10096000A0EB0801494502D90320BDE8F087606883
:10097000696800F00C00B0EB810FEFD1306800F037
:100980000700B8420BD9306820F0070038433060C8
:10099000306800F00700B84201D00120E5E7287870
:1009A000400705D56068E96820F4E06008436060AE
:1009B0002878000706D56068296920F4605040EA6D
:1009C000C100606000F038F86168084AC1F30311A3
:1009D000515CC8400649086006480068FFF782FE7F
:1009E0000020C2E70020024000100240D81B00088F
:1009F0000C000020040000200448054900684968F4
:100A0000044AC1F30221515CC84070470C00002029
:100A100000100240E81B00080448054900684968C6
:100A2000044AC1F3C221515CC84070470C00002049
:100A300000100240E81B000812A185B00FC98DE824
:100A40000F0014A0144A006804905168134811F074
:100A50000C0312D0042B10D0082B0ED1C1F383430A
:100A6000C9031DF803000AD5516804AAC1F3404127
:100A7000515C0A4A5043B0FBF1F005B07047084999
:100A80004843FAE702030405060708090A0B0C0DA0
:100A90000E0F1010010200000010024000127A0038
:100AA00000093D002DE9F84F040070D02078C04DBA
:100AB000C00749D06868C0F38100012807D0686882
:100AC000C0F38100022809D16868C00306D52868F0
:100AD000800339D560680028E7D035E06068B0F55C
:100AE000803F0BD010B1B0F5A02F11D0286820F4B2
:100AF00080302860286820F4802002E0286840F4D4
:100B000080302860606890B1FFF7CCFD06460AE0AF
:100B1000286840F480202860F0E700BFFFF7C2FD9E
:100B2000801B642873D828688003F7D50CE0FFF792
:100B3000B9FD064605E000BFFFF7B4FD801B642841
:100B4000F0D828688003F7D420789A4E80074FF0B9
:100B500001094FF0000839D5686810F00C0F07D074
:100B60006868C0F38100022809D16868C00306D410
:100B70002868800714D52069012808D110E0206971
:100B8000B0B1C6F80090FFF78DFD074605E00AE119
:100B9000FFF788FDC01B0228C4D828688007F7D556
:100BA0002868616920F0F80040EAC10028600DE083
:100BB000C6F80080FFF776FD074604E0FFF772FDF8
:100BC000C01B022823D828688007F7D420780007A4
:100BD0002CD57948A169D9B1C0F80090FFF762FD22
:100BE000074604E0FFF75EFDC01B02280FD8686AC5
:100BF0008007F7D571484FF4FA510068B0FBF1F067
:100C0000009000BF0098411E0091FAD20EE080E0F3
:100C1000C0F80080FFF746FD074604E0FFF742FDFD
:100C2000C01B022875D8686A8007F7D4207840076F
:100C300060D5E8690027C00008D4E86940F080501A
:100C4000E861E869012700F0805000905C48016885
:100C5000C90513D40168834641F480710160FFF730
:100C600021FD824606E000BFFFF71CFDA0EB0A0055
:100C700064284ED8DBF80000C005F5D5E0680128EF
:100C80000AD008B1052813D0286A20F00100286294
:100C9000286A20F0040002E0286A40F0010028627F
:100CA000E06841F2883B98B1FFF7FCFC82460BE01C
:100CB000286A40F004002862EEE700BFFFF7F2FC6C
:100CC000A0EB0A0159455AD8286A8007F6D50CE0EE
:100CD000FFF7E8FC824605E0FFF7E4FCA0EB0A0121
:100CE00059454CD8286A8007F6D41FB1E86920F02E
:100CF0008050E861E06988B36968C1F38101022925
:100D000044D00228C6F8608004D0FFF7CBFC04462C
:100D100038E034E0FFF7C6FC074604E0FFF7C2FC0A
:100D2000C01B02282BD828688001F7D4206AB0F5B0
:100D3000803F05D16868A16820F4003008436860EE
:100D4000D4E908010843696821F474110843686014
:100D5000C6F86090FFF7A6FC044606E025E000BF59
:100D6000FFF7A0FC001B022809D828688001F7D5EE
:100D70001BE000BFFFF796FC001B022802D90320EE
:100D8000BDE8F88F28688001F4D40EE00128F7D080
:100D90006868226A00F48031914204D1616A00F4EB
:100DA0007010884201D00120EAE70020E8E7000047
:100DB0000010024000004242800442420C00002029
:100DC0000070004070B5040005D00025A56294F8BD
:100DD000510010B106E0012070BD84F8505020464B
:100DE00000F02EF8022084F851002068016821F0FC
:100DF00040010160D4E901010843D4E90312114321
:100E0000084361690843218B01F400710843E169DB
:100E10000843216A0843A16A084321680860A06961
:100E2000042101EA1040216848602068C16921F46A
:100E30000061C1616565012084F85100002070BD2A
:100E400030B585B0002400940194029403940068A6
:100E50001449884223D11448816941F48051816149
:100E6000816901F480510491816941F0040181613B
:100E700080690E4D00F004000490B0200090022024
:100E800001900320039069462846FFF715FB402098
:100E9000CDE90004694628460294FFF70DFB05B032
:100EA00030BD000000300140001002400008014049
:100EB00010B5401EB0F1807F01D3012010BD4FF06E
:100EC000E02460610F21601700F040FE0020A06167
:100ED00007202061002010BD70B590F83C20012A49
:100EE00019D0012400F83C4F0222427050F83C3CDB
:100EF0005A689D6822F070060A684968324325F0F6
:100F0000800529435A6050F83C2C916044700021C0
:100F10000170084670BD022070BD10B5040003D0FA
:100F200094F83D0010B107E0012010BD002084F8C6
:100F30003C00204600F00CF8022084F83D00211D02
:100F4000206800F0CDFB012084F83D00002010BD9A
:100F500008B50068B0F1804F08D10548C16941F07B
:100F60000101C161C06900F00100009008BD0000EE
:100F70000010024070B5044690F83C00012817D0DC
:100F8000012584F83C50022084F83D0020688268E6
:100F900022F0770222F47F4282600868502830D025
:100FA0000DDC20284DD005DC98B310283BD148E05B
:100FB000022070BD302844D0402834D139E0602868
:100FC00028D0702806D0B0F5805F2CD0B0F5005F37
:100FD00029D10AE0CB68D1E90121206800F0B6FBF5
:100FE0002068816841F0770109E0CB68D1E90121EF
:100FF000206800F0ABFB2068816841F4804181608B
:1010000011E0CA684968206800F05CFC5021206843
:1010100007E016E0CA684968206800F064FC6021B7
:10102000206800F047FC84F83D50002084F83C0024
:1010300070BDCA684968206800F044FC40212068FF
:10104000EFE7226801461046EBE7000000B585B0E7
:10105000002100910191029103910068B0F1804F4D
:1010600011D10A48816941F00401816180696946B2
:1010700000F00400049004200090022001900390EE
:101080000348FFF719FA05B000BD00000010024048
:101090000008014070B5044690F83C000D46012858
:1010A0000DD0012684F83C60022084F83D0042B156
:1010B000042A18D0082A2AD00C2A4DD139E002205F
:1010C00070BD206800F080FB2068816941F0080154
:1010D00081612068816921F0040181612068816952
:1010E0002A69114311E0206800F03AFB2068816909
:1010F00041F4006181612068816921F4806181612E
:10110000206881692A6941EA0221816124E020681E
:1011100000F082FB2068C16941F00801C1612068CC
:10112000C16921F00401C1612068C1692A691143C4
:1011300011E0206800F09CFB2068C16941F4006167
:10114000C1612068C16921F48061C1612068C16901
:101150002A6941EA0221C16184F83D60002084F8D7
:101160003C0070BD10B5040003D094F83D0010B1F0
:1011700007E0012010BD002084F83C00204600F06C
:101180000CF8022084F83D00211D206800F0A8FA28
:10119000012084F83D00002010BD7047704700001A
:1011A00070B5026804461068D168536910F00F0FDB
:1011B00050D003F0010501F4907635435DD0C207AD
:1011C00005D0CA0503D5E26B42F00102E263420793
:1011D00005D5DA0703D0E26B42F00202E263820730
:1011E00005D5DA0703D0E26B42F00402E26302079E
:1011F00005D5DA0703D0E26B42F00802E263E26B46
:10120000002A33D0800604D5880602D5204600F097
:10121000D9FB20684069E16BC0F38010090700D456
:1012200028B3204600F04AFC2068416949061AD5D7
:10123000416921F040014161606BA0B11B494163EC
:10124000606BFFF7DBF8002810D0606B416BBDE8E6
:1012500070400847830610D58B060ED52046BDE8A2
:10126000704000F0AFBB2046FFF798FF70BD2046EE
:10127000FFF794FF0020E06370BD030606D50B0660
:1012800004D52046BDE8704000F0E7BB4006F3D52A
:101290004806F1D5D168204621F04001D1602021D7
:1012A00084F8391000F0DBF870BD0000D91A00088E
:1012B00070B5040004D094F83900002510B106E0A0
:1012C000012070BD84F83850204600F023F8242017
:1012D00084F839002068C16821F40051C1602046BB
:1012E00000F014FB2068016921F49041016120683D
:1012F000416921F02A0141612068C16841F400512F
:10130000C160E563202084F8390084F83A000020A9
:1013100070BD000030B585B00024009401940294A3
:10132000039400681B49884232D11B48816941F40B
:1013300080418161816901F480410491816941F0BA
:10134000080181618069154D00F00800049040207B
:101350000090022001900320039069462846FFF781
:10136000ABF88020CDE90004694628460294FFF7D7
:10137000A3F80B48416841F0E06141F0040141608D
:10138000002211462520FFF7F9F92520FFF7E8F99B
:1013900005B030BD0038014000100240000C014093
:1013A000000001402DE9F843044690F83A009946C0
:1013B00016460D4620284FD195B18EB194F83800CD
:1013C000012849D0012084F838000027E763222053
:1013D00084F83A00FFF766F9A6858046E68531E095
:1013E0000120BDE8F883E08D401EE085A0684346FB
:1013F000B0F5805F4FF000024FF020012046CDF89D
:10140000009004D000F070FB98B10320E9E700F0F1
:101410006BFB0028F9D1206900282068406803D0C0
:10142000C1B225F8011B0DE0C0F3080125F8021B2D
:1014300008E0206900282068406801D000F07F00A3
:1014400005F8010BE08D0028CDD1202084F83A006A
:1014500084F838700020C4E70220C2E7FEE7704736
:10146000FEE7000030B58FB000240E4800900C94C9
:1014700002944FF460200D940E94012507908DF88E
:101480000C408DF81440049501946846FEF714FF53
:101490001020CDE90C050CA90E946846FEF78EFECF
:1014A0000FB030BD002401402DE9F04385B0002588
:1014B00025480095019502950395816941F0200129
:1014C0008161816901F020010491816941F0040189
:1014D0008161816901F004010491816941F0080191
:1014E00081618069DFF8649000F0080004900022B8
:1014F0004FF442714846FFF7CFF8DFF854804FF2BF
:101500002007002239464046FFF7C6F84FF48470A2
:10151000012403268DE8710069464846FEF7CCFF9A
:1015200001AA009782E8700069464046FEF7C4FFB2
:101530006002CDE90004CDE9024669464846FEF75F
:10154000BBFF05B0BDE8F083001002400008014079
:10155000000C014000B597B00C4800904FF4827029
:10156000019000204FF40061CDE902018910049040
:10157000CDE905012821CDE9071009900A900A203C
:101580000B906846FFF71EFC17B000BD003001400D
:1015900010B59EB000241794189419941A941B94B3
:1015A0001C2110A81C94FEF7C4FD4FF08040009051
:1015B0004820CDE901046320CDE903046846069480
:1015C000FFF7ABFC4FF48050179017A96846FFF760
:1015D000D1FC6846FFF7C6FD1B941BA968461C9406
:1015E000FFF77AFC6020CDE910041294082210A9BC
:1015F00068461494FFF74EFD6846FFF727FD1EB0BE
:1016000010BD00000848074901604FF46141416086
:10161000002181600C22C160C0E904128161C161B6
:10162000FFF746BE0038014010000020FEE770477B
:1016300070477047FFF73CB830B593B02821684633
:10164000FEF777FD14210AA8FEF773FD00240120A0
:101650000F9410941194010412948DE813000490D7
:101660004FF4E010CDE90810022507956846FFF712
:1016700019FA0F20CDE90A056802CDE90C400221D4
:101680000AA80E94FFF722F9A80311900F950FA84E
:10169000FFF7A6F813B030BD0D48016841F0010115
:1016A000016041680B4A1140416001680A4A1140DB
:1016B0000160016821F480210160416821F4FE018C
:1016C00041604FF41F0181600449C0030860704706
:1016D000001002400000FFF8FFFFF6FE08ED00E0FA
:1016E000F0B50268164B174C174D4FF080479842E3
:1016F00005D0B84203D0A04201D0A84203D122F0C5
:1017000070064A683243984205D0B84203D0A042DE
:1017100001D0A84203D122F44074CA6822434C6924
:1017200022F08002224302608A68C2620A688262F2
:10173000984201D10969016301214161F0BD0000B6
:10174000002C0140000400400008004010B58468EF
:1017500042EA032224F47F440A432243826010BDFC
:1017600030B5026A22F010020262026A436884699C
:101770000D6824F4E64444EA05248D6822F0200232
:1017800042EA05120B4DA8420ED1CD6822F080022C
:1017900042EA05124D6923F4406343EA85038D69EB
:1017A00022F0400243EA8503436084614968816313
:1017B000026230BD002C01400148FFF7F1BC00007F
:1017C00010000020FEE7000030B5026A22F001029E
:1017D0000262026A4368846924F073050C682C4332
:1017E00022F002058A682A430A4DA8420BD122F052
:1017F0000805CA6823F440732A434D6922F00402A5
:101800001D438B692B4343608461496841630262D5
:1018100030BD0000002C014030B5026A22F4807215
:101820000262036A4268C46923F4007324F07305FA
:101830000C682C438D6843EA05230C4DA8420ED159
:10184000CD6823F4006343EA05234D6922F4405236
:1018500042EA05128D6923F4806342EA0512426070
:10186000C4614968C163036230BD0000002C0140BF
:1018700030B5026A22F480520262046A4268C36987
:101880000D6823F4E64343EA05238D6824F40054ED
:1018900044EA0534064DA84204D14D6922F4804241
:1018A00042EA85124260C36149680164046230BD46
:1018B000002C0140826822F070020A4342F00701C6
:1018C0008160704710B5036A046A24F00104046261
:1018D000846924F0F00444EA021423F00A020A4363
:1018E0008461026210BD10B5036A23F01003036225
:1018F0008369046A23F4704343EA023224F0A003AC
:1019000043EA01118261016210BD00002DE9F0413E
:10191000044600680169E26821F440511143016105
:101920002169A0680843616908432168CA6841F2D7
:101930000C639A430243CA6020684169A26921F49A
:101940004071114341611E49206864253226884256
:1019500002D1FFF761F801E0FFF74EF800EBC0019C
:1019600001EB001160686FF018078000B1FBF0F226
:10197000B2FBF5F2B1FBF0F37A4303EB8202B1FB69
:10198000F0F306EB0212B2FBF5F2B3FBF5F302F053
:10199000F00202EB0312B1FBF0F3B1FBF0F0B0FB8D
:1019A000F5F0784303EB800006EB0010B0FBF5F098
:1019B000216800F00F0010448860BDE8F08100004D
:1019C0000038014010B590F83A10222901D00220C9
:1019D00010BD8168B1F5805F11D0016900290168EF
:1019E0001FD0496801F07F03816A4A1C82620B7034
:1019F000C18D491E0904090CC18518D02BE002696C
:101A0000816A002A0268526805D0D2B20A80816ACF
:101A1000491C8162ECE7C2F308020A80816A891CD2
:101A2000F7E74A68816A4B1C83620A70E0E7016845
:101A3000CA6822F02002CA600168CA6822F4807273
:101A4000CA6001684A6922F001024A61202180F8D7
:101A50003A10FFF703FD002010BD90F8391021293E
:101A600001D0022070478168B1F5805F016A0BD018
:101A70004A1C0262026809785160C18C491E09043F
:101A8000090CC1840ED017E009880268C1F308016F
:101A9000516001690029016A02D0491C0162ECE72A
:101AA000891CFBE70168CA6822F08002CA600068EE
:101AB000C16841F04001C160002070470168CA68F8
:101AC00022F49072CA6001684A6922F001024A61F8
:101AD000202180F83A10704710B5406A0021C18576
:101AE000C184FFF75BFB10BD2DE9F0419846174616
:101AF0000E460446069D1DE0681C1BD02DB1FEF766
:101B0000D1FDA0EB0800A84214D92068C16821F4D7
:101B1000D071C1602068416921F00101416120203C
:101B200084F8390084F83A00002084F83800032053
:101B3000BDE8F0812068006836EA000004D000208B
:101B4000B842D9D00020F3E70120F9E70907090ED0
:101B5000002804DB00F1E02080F80014704700F05A
:101B60000F0000F1E02080F8141D704702E008C863
:101B7000121F08C1002AFAD170477047002001E007
:101B800001C1121F002AFBD1704710B5FEF798FD66
:101B9000FFF752FDFFF788FCFFF7DCFCFFF7F8FCCE
:101BA000FFF730FDBDE81040FFF75CBC08B5FFF75C
:101BB000ECFF4FF47A70FEF76DFC4FF0FF342346D4
:101BC000012269460348FFF7EDFB6420FEF762FC43
:101BD000F5E70000100000200000000000000000F9
:101BE00001020304060708090000000001020304C3
:101BF000101C000800000020100000006C1B0008F2
:101C0000201C000810000020400400007C1B00087D
:101C10000100000010000000000000000024F4009B
:04000005080000ED02
:00000001FF
